{
  "address": "0x577005D252504250B31BA13b226bD2a2faBE1dd3",
  "abi": [
    {
      "inputs": [
        {
          "internalType": "address",
          "name": "target",
          "type": "address"
        }
      ],
      "name": "AddressEmptyCode",
      "type": "error"
    },
    {
      "inputs": [
        {
          "internalType": "address",
          "name": "implementation",
          "type": "address"
        }
      ],
      "name": "ERC1967InvalidImplementation",
      "type": "error"
    },
    {
      "inputs": [],
      "name": "ERC1967NonPayable",
      "type": "error"
    },
    {
      "inputs": [],
      "name": "FailedCall",
      "type": "error"
    },
    {
      "inputs": [],
      "name": "InvalidInitialization",
      "type": "error"
    },
    {
      "inputs": [],
      "name": "NotInitializing",
      "type": "error"
    },
    {
      "inputs": [
        {
          "internalType": "address",
          "name": "owner",
          "type": "address"
        }
      ],
      "name": "OwnableInvalidOwner",
      "type": "error"
    },
    {
      "inputs": [
        {
          "internalType": "address",
          "name": "account",
          "type": "address"
        }
      ],
      "name": "OwnableUnauthorizedAccount",
      "type": "error"
    },
    {
      "inputs": [],
      "name": "UUPSUnauthorizedCallContext",
      "type": "error"
    },
    {
      "inputs": [
        {
          "internalType": "bytes32",
          "name": "slot",
          "type": "bytes32"
        }
      ],
      "name": "UUPSUnsupportedProxiableUUID",
      "type": "error"
    },
    {
      "anonymous": false,
      "inputs": [
        {
          "indexed": false,
          "internalType": "uint64",
          "name": "version",
          "type": "uint64"
        }
      ],
      "name": "Initialized",
      "type": "event"
    },
    {
      "anonymous": false,
      "inputs": [
        {
          "indexed": true,
          "internalType": "address",
          "name": "previousOwner",
          "type": "address"
        },
        {
          "indexed": true,
          "internalType": "address",
          "name": "newOwner",
          "type": "address"
        }
      ],
      "name": "OwnershipTransferred",
      "type": "event"
    },
    {
      "anonymous": false,
      "inputs": [
        {
          "indexed": true,
          "internalType": "uint256",
          "name": "tokenId",
          "type": "uint256"
        }
      ],
      "name": "PageUpdated",
      "type": "event"
    },
    {
      "anonymous": false,
      "inputs": [
        {
          "indexed": true,
          "internalType": "address",
          "name": "implementation",
          "type": "address"
        }
      ],
      "name": "Upgraded",
      "type": "event"
    },
    {
      "inputs": [],
      "name": "UPGRADE_INTERFACE_VERSION",
      "outputs": [
        {
          "internalType": "string",
          "name": "",
          "type": "string"
        }
      ],
      "stateMutability": "view",
      "type": "function"
    },
    {
      "inputs": [],
      "name": "initialize",
      "outputs": [],
      "stateMutability": "nonpayable",
      "type": "function"
    },
    {
      "inputs": [],
      "name": "owner",
      "outputs": [
        {
          "internalType": "address",
          "name": "",
          "type": "address"
        }
      ],
      "stateMutability": "view",
      "type": "function"
    },
    {
      "inputs": [
        {
          "internalType": "uint256",
          "name": "",
          "type": "uint256"
        }
      ],
      "name": "pages",
      "outputs": [
        {
          "internalType": "string",
          "name": "content",
          "type": "string"
        },
        {
          "internalType": "string",
          "name": "name",
          "type": "string"
        },
        {
          "internalType": "string",
          "name": "description",
          "type": "string"
        },
        {
          "internalType": "string",
          "name": "imageUrl",
          "type": "string"
        }
      ],
      "stateMutability": "view",
      "type": "function"
    },
    {
      "inputs": [],
      "name": "proxiableUUID",
      "outputs": [
        {
          "internalType": "bytes32",
          "name": "",
          "type": "bytes32"
        }
      ],
      "stateMutability": "view",
      "type": "function"
    },
    {
      "inputs": [],
      "name": "renounceOwnership",
      "outputs": [],
      "stateMutability": "nonpayable",
      "type": "function"
    },
    {
      "inputs": [
        {
          "internalType": "uint256",
          "name": "tokenId",
          "type": "uint256"
        }
      ],
      "name": "tokenURI",
      "outputs": [
        {
          "internalType": "string",
          "name": "",
          "type": "string"
        }
      ],
      "stateMutability": "view",
      "type": "function"
    },
    {
      "inputs": [
        {
          "internalType": "address",
          "name": "newOwner",
          "type": "address"
        }
      ],
      "name": "transferOwnership",
      "outputs": [],
      "stateMutability": "nonpayable",
      "type": "function"
    },
    {
      "inputs": [
        {
          "internalType": "uint256",
          "name": "tokenId",
          "type": "uint256"
        },
        {
          "internalType": "string",
          "name": "_content",
          "type": "string"
        },
        {
          "internalType": "string",
          "name": "_name",
          "type": "string"
        },
        {
          "internalType": "string",
          "name": "_description",
          "type": "string"
        },
        {
          "internalType": "string",
          "name": "_imageUrl",
          "type": "string"
        }
      ],
      "name": "updatePage",
      "outputs": [],
      "stateMutability": "nonpayable",
      "type": "function"
    },
    {
      "inputs": [
        {
          "internalType": "address",
          "name": "newImplementation",
          "type": "address"
        },
        {
          "internalType": "bytes",
          "name": "data",
          "type": "bytes"
        }
      ],
      "name": "upgradeToAndCall",
      "outputs": [],
      "stateMutability": "payable",
      "type": "function"
    }
  ],
  "transactionHash": "0x1e2add658c0da61799297e234b37e3936e8c56ecfb1c87cdf5ff516babc9dede",
  "args": [],
  "numDeployments": 1,
  "solcInputHash": "991cd8757e146ab48b2943dbb2ac475a",
  "bytecode": "0x60a060405230608052348015601357600080fd5b5060805161179961003d60003960008181610a6e01528181610a970152610bdd01526117996000f3fe6080604052600436106100915760003560e01c80638129fc1c116100595780638129fc1c146101385780638da5cb5b1461014d578063ad3cb1cc14610194578063c87b56dd146101d2578063f2fde38b146101f257600080fd5b80631b2bc32b146100965780634f1ef286146100b857806352d1902d146100cb5780635c3e9cc2146100f3578063715018a614610123575b600080fd5b3480156100a257600080fd5b506100b66100b1366004611115565b610212565b005b6100b66100c636600461122a565b61039b565b3480156100d757600080fd5b506100e06103ba565b6040519081526020015b60405180910390f35b3480156100ff57600080fd5b5061011361010e3660046112f4565b6103d7565b6040516100ea949392919061135d565b34801561012f57600080fd5b506100b661061f565b34801561014457600080fd5b506100b6610633565b34801561015957600080fd5b507f9016d09d72d40fdae2fd8ceac6b6234c7706214fd39c1cd1e609a0528c199300546040516001600160a01b0390911681526020016100ea565b3480156101a057600080fd5b506101c5604051806040016040528060058152602001640352e302e360dc1b81525081565b6040516100ea91906113b5565b3480156101de57600080fd5b506101c56101ed3660046112f4565b610742565b3480156101fe57600080fd5b506100b661020d3660046113c8565b610a20565b604051806080016040528089898080601f016020809104026020016040519081016040528093929190818152602001838380828437600092019190915250505090825250604080516020601f8a0181900481028201810190925288815291810191908990899081908401838280828437600092019190915250505090825250604080516020601f880181900481028201810190925286815291810191908790879081908401838280828437600092019190915250505090825250604080516020601f86018190048102820181019092528481529181019190859085908190840183828082843760009201829052509390945250508b8152602081905260409020825190915081906103239082611464565b50602082015160018201906103389082611464565b506040820151600282019061034d9082611464565b50606082015160038201906103629082611464565b50506040518a91507fca0d328a8d079e435a1aea947a2f635428c439e5e3fe94423d9062720ba8038a90600090a2505050505050505050565b6103a3610a63565b6103ac82610b08565b6103b68282610b10565b5050565b60006103c4610bd2565b5060008051602061170483398151915290565b6000602081905290815260409020805481906103f2906113e3565b80601f016020809104026020016040519081016040528092919081815260200182805461041e906113e3565b801561046b5780601f106104405761010080835404028352916020019161046b565b820191906000526020600020905b81548152906001019060200180831161044e57829003601f168201915b505050505090806001018054610480906113e3565b80601f01602080910402602001604051908101604052809291908181526020018280546104ac906113e3565b80156104f95780601f106104ce576101008083540402835291602001916104f9565b820191906000526020600020905b8154815290600101906020018083116104dc57829003601f168201915b50505050509080600201805461050e906113e3565b80601f016020809104026020016040519081016040528092919081815260200182805461053a906113e3565b80156105875780601f1061055c57610100808354040283529160200191610587565b820191906000526020600020905b81548152906001019060200180831161056a57829003601f168201915b50505050509080600301805461059c906113e3565b80601f01602080910402602001604051908101604052809291908181526020018280546105c8906113e3565b80156106155780601f106105ea57610100808354040283529160200191610615565b820191906000526020600020905b8154815290600101906020018083116105f857829003601f168201915b5050505050905084565b610627610c1b565b6106316000610c76565b565b7ff0c57e16840df040f15088dc2f81fe391c3923bec73e23a9662efc9c229c6a008054600160401b810460ff16159067ffffffffffffffff166000811580156106795750825b905060008267ffffffffffffffff1660011480156106965750303b155b9050811580156106a4575080155b156106c25760405163f92ee8a960e01b815260040160405180910390fd5b845467ffffffffffffffff1916600117855583156106ec57845460ff60401b1916600160401b1785555b6106f533610ce7565b831561073b57845460ff60401b19168555604051600181527fc7f505b2f371ae2175ee4913f4499e1f2633a7b5936321eed1cdaeb6115181d29060200160405180910390a15b5050505050565b60606000806000848152602001908152602001600020604051806080016040529081600082018054610773906113e3565b80601f016020809104026020016040519081016040528092919081815260200182805461079f906113e3565b80156107ec5780601f106107c1576101008083540402835291602001916107ec565b820191906000526020600020905b8154815290600101906020018083116107cf57829003601f168201915b50505050508152602001600182018054610805906113e3565b80601f0160208091040260200160405190810160405280929190818152602001828054610831906113e3565b801561087e5780601f106108535761010080835404028352916020019161087e565b820191906000526020600020905b81548152906001019060200180831161086157829003601f168201915b50505050508152602001600282018054610897906113e3565b80601f01602080910402602001604051908101604052809291908181526020018280546108c3906113e3565b80156109105780601f106108e557610100808354040283529160200191610910565b820191906000526020600020905b8154815290600101906020018083116108f357829003601f168201915b50505050508152602001600382018054610929906113e3565b80601f0160208091040260200160405190810160405280929190818152602001828054610955906113e3565b80156109a25780601f10610977576101008083540402835291602001916109a2565b820191906000526020600020905b81548152906001019060200180831161098557829003601f168201915b505050505081525050905060006109f58260200151836040015184606001516109ce8660000151610cf8565b6040516020016109e19493929190611523565b604051602081830303815290604052610cf8565b905080604051602001610a089190611627565b60405160208183030381529060405292505050919050565b610a28610c1b565b6001600160a01b038116610a5757604051631e4fbdf760e01b8152600060048201526024015b60405180910390fd5b610a6081610c76565b50565b306001600160a01b037f0000000000000000000000000000000000000000000000000000000000000000161480610aea57507f00000000000000000000000000000000000000000000000000000000000000006001600160a01b0316610ade600080516020611704833981519152546001600160a01b031690565b6001600160a01b031614155b156106315760405163703e46dd60e11b815260040160405180910390fd5b610a60610c1b565b816001600160a01b03166352d1902d6040518163ffffffff1660e01b8152600401602060405180830381865afa925050508015610b6a575060408051601f3d908101601f19168201909252610b679181019061166c565b60015b610b9257604051634c9c8ce360e01b81526001600160a01b0383166004820152602401610a4e565b6000805160206117048339815191528114610bc357604051632a87526960e21b815260048101829052602401610a4e565b610bcd8383610d24565b505050565b306001600160a01b037f000000000000000000000000000000000000000000000000000000000000000016146106315760405163703e46dd60e11b815260040160405180910390fd5b33610c4d7f9016d09d72d40fdae2fd8ceac6b6234c7706214fd39c1cd1e609a0528c199300546001600160a01b031690565b6001600160a01b0316146106315760405163118cdaa760e01b8152336004820152602401610a4e565b7f9016d09d72d40fdae2fd8ceac6b6234c7706214fd39c1cd1e609a0528c19930080546001600160a01b031981166001600160a01b03848116918217845560405192169182907f8be0079c531659141344cd1fd0a4f28419497f9722a3daafe3b4186f6b6457e090600090a3505050565b610cef610d7a565b610a6081610dc3565b6060610d1e82604051806060016040528060408152602001611724604091396001610dcb565b92915050565b610d2d82610f4d565b6040516001600160a01b038316907fbc7cd75a20ee27fd9adebab32041f755214dbc6bffa90cc0225b39da2e5c2d3b90600090a2805115610d7257610bcd8282610fb2565b6103b6611028565b7ff0c57e16840df040f15088dc2f81fe391c3923bec73e23a9662efc9c229c6a0054600160401b900460ff1661063157604051631afcd79f60e31b815260040160405180910390fd5b610a28610d7a565b60608351600003610deb5750604080516020810190915260008152610f46565b600082610e1c57600385516004610e02919061169b565b610e0d9060026116b2565b610e1791906116c5565b610e41565b600385516002610e2c91906116b2565b610e3691906116c5565b610e4190600461169b565b905060008167ffffffffffffffff811115610e5e57610e5e611214565b6040519080825280601f01601f191660200182016040528015610e88576020820181803683370190505b50905060018501602082018788518901602081018051600082525b82841015610efe576003840193508351603f8160121c168701518653600186019550603f81600c1c168701518653600186019550603f8160061c168701518653600186019550603f8116870151865350600185019450610ea3565b905250508515610f3f57600388510660018114610f225760028114610f3557610f3d565b603d6001830353603d6002830353610f3d565b603d60018303535b505b5090925050505b9392505050565b806001600160a01b03163b600003610f8357604051634c9c8ce360e01b81526001600160a01b0382166004820152602401610a4e565b60008051602061170483398151915280546001600160a01b0319166001600160a01b0392909216919091179055565b6060600080846001600160a01b031684604051610fcf91906116e7565b600060405180830381855af49150503d806000811461100a576040519150601f19603f3d011682016040523d82523d6000602084013e61100f565b606091505b509150915061101f858383611047565b95945050505050565b34156106315760405163b398979f60e01b815260040160405180910390fd5b60608261105c57611057826110a3565b610f46565b815115801561107357506001600160a01b0384163b155b1561109c57604051639996b31560e01b81526001600160a01b0385166004820152602401610a4e565b5080610f46565b8051156110b35780518082602001fd5b60405163d6bda27560e01b815260040160405180910390fd5b60008083601f8401126110de57600080fd5b50813567ffffffffffffffff8111156110f657600080fd5b60208301915083602082850101111561110e57600080fd5b9250929050565b600080600080600080600080600060a08a8c03121561113357600080fd5b8935985060208a013567ffffffffffffffff81111561115157600080fd5b61115d8c828d016110cc565b90995097505060408a013567ffffffffffffffff81111561117d57600080fd5b6111898c828d016110cc565b90975095505060608a013567ffffffffffffffff8111156111a957600080fd5b6111b58c828d016110cc565b90955093505060808a013567ffffffffffffffff8111156111d557600080fd5b6111e18c828d016110cc565b915080935050809150509295985092959850929598565b80356001600160a01b038116811461120f57600080fd5b919050565b634e487b7160e01b600052604160045260246000fd5b6000806040838503121561123d57600080fd5b611246836111f8565b9150602083013567ffffffffffffffff81111561126257600080fd5b8301601f8101851361127357600080fd5b803567ffffffffffffffff81111561128d5761128d611214565b604051601f8201601f19908116603f0116810167ffffffffffffffff811182821017156112bc576112bc611214565b6040528181528282016020018710156112d457600080fd5b816020840160208301376000602083830101528093505050509250929050565b60006020828403121561130657600080fd5b5035919050565b60005b83811015611328578181015183820152602001611310565b50506000910152565b6000815180845261134981602086016020860161130d565b601f01601f19169290920160200192915050565b6080815260006113706080830187611331565b82810360208401526113828187611331565b905082810360408401526113968186611331565b905082810360608401526113aa8185611331565b979650505050505050565b602081526000610f466020830184611331565b6000602082840312156113da57600080fd5b610f46826111f8565b600181811c908216806113f757607f821691505b60208210810361141757634e487b7160e01b600052602260045260246000fd5b50919050565b601f821115610bcd57806000526020600020601f840160051c810160208510156114445750805b601f840160051c820191505b8181101561073b5760008155600101611450565b815167ffffffffffffffff81111561147e5761147e611214565b6114928161148c84546113e3565b8461141d565b6020601f8211600181146114c657600083156114ae5750848201515b600019600385901b1c1916600184901b17845561073b565b600084815260208120601f198516915b828110156114f657878501518255602094850194600190920191016114d6565b50848210156115145786840151600019600387901b60f8161c191681555b50505050600190811b01905550565b693d913730b6b2911d101160b11b8152845160009061154981600a850160208a0161130d565b72111610113232b9b1b934b83a34b7b7111d101160691b600a91840191820152855161157c81601d840160208a0161130d565b600a818301019150506c1116101134b6b0b3b2911d101160991b601382015284516115ae81602084016020890161130d565b6013818301019150507f222c2022616e696d6174696f6e5f75726c223a2022646174613a746578742f68600d8201526a1d1b5b0ed8985cd94d8d0b60aa1b602d820152835161160481603884016020880161130d565b61161b60388383010161227d60f01b815260020190565b98975050505050505050565b7f646174613a6170706c69636174696f6e2f6a736f6e3b6261736536342c00000081526000825161165f81601d85016020870161130d565b91909101601d0192915050565b60006020828403121561167e57600080fd5b5051919050565b634e487b7160e01b600052601160045260246000fd5b8082028115828204841417610d1e57610d1e611685565b80820180821115610d1e57610d1e611685565b6000826116e257634e487b7160e01b600052601260045260246000fd5b500490565b600082516116f981846020870161130d565b919091019291505056fe360894a13ba1a3210667c828492db98dca3e2076cc3735a920a3ca505d382bbc4142434445464748494a4b4c4d4e4f505152535455565758595a6162636465666768696a6b6c6d6e6f707172737475767778797a303132333435363738392b2fa2646970667358221220272a6ffee6b3ff5230ad103995323c6b140dd386eb533570df2fbdcaf365cc9364736f6c634300081c0033",
  "devdoc": {
    "details": "Upgradeable contract for storing and generating NFT metadata.",
    "errors": {
      "AddressEmptyCode(address)": [
        {
          "details": "There's no code at `target` (it is not a contract)."
        }
      ],
      "ERC1967InvalidImplementation(address)": [
        {
          "details": "The `implementation` of the proxy is invalid."
        }
      ],
      "ERC1967NonPayable()": [
        {
          "details": "An upgrade function sees `msg.value > 0` that may be lost."
        }
      ],
      "FailedCall()": [
        {
          "details": "A call to an address target failed. The target may have reverted."
        }
      ],
      "InvalidInitialization()": [
        {
          "details": "The contract is already initialized."
        }
      ],
      "NotInitializing()": [
        {
          "details": "The contract is not initializing."
        }
      ],
      "OwnableInvalidOwner(address)": [
        {
          "details": "The owner is not a valid owner account. (eg. `address(0)`)"
        }
      ],
      "OwnableUnauthorizedAccount(address)": [
        {
          "details": "The caller account is not authorized to perform an operation."
        }
      ],
      "UUPSUnauthorizedCallContext()": [
        {
          "details": "The call is from an unauthorized context."
        }
      ],
      "UUPSUnsupportedProxiableUUID(bytes32)": [
        {
          "details": "The storage `slot` is unsupported as a UUID."
        }
      ]
    },
    "events": {
      "Initialized(uint64)": {
        "details": "Triggered when the contract has been initialized or reinitialized."
      },
      "Upgraded(address)": {
        "details": "Emitted when the implementation is upgraded."
      }
    },
    "kind": "dev",
    "methods": {
      "owner()": {
        "details": "Returns the address of the current owner."
      },
      "proxiableUUID()": {
        "details": "Implementation of the ERC-1822 {proxiableUUID} function. This returns the storage slot used by the implementation. It is used to validate the implementation's compatibility when performing an upgrade. IMPORTANT: A proxy pointing at a proxiable contract should not be considered proxiable itself, because this risks bricking a proxy that upgrades to it, by delegating to itself until out of gas. Thus it is critical that this function revert if invoked through a proxy. This is guaranteed by the `notDelegated` modifier."
      },
      "renounceOwnership()": {
        "details": "Leaves the contract without owner. It will not be possible to call `onlyOwner` functions. Can only be called by the current owner. NOTE: Renouncing ownership will leave the contract without an owner, thereby disabling any functionality that is only available to the owner."
      },
      "tokenURI(uint256)": {
        "params": {
          "tokenId": "The ID of the token."
        },
        "returns": {
          "_0": "A string containing the token URI in base64-encoded JSON format."
        }
      },
      "transferOwnership(address)": {
        "details": "Transfers ownership of the contract to a new account (`newOwner`). Can only be called by the current owner."
      },
      "updatePage(uint256,string,string,string,string)": {
        "params": {
          "_content": "The HTML content of the page.",
          "_description": "The description.",
          "_imageUrl": "The URL of the preview image.",
          "_name": "The display name.",
          "tokenId": "The ID of the token."
        }
      },
      "upgradeToAndCall(address,bytes)": {
        "custom:oz-upgrades-unsafe-allow-reachable": "delegatecall",
        "details": "Upgrade the implementation of the proxy to `newImplementation`, and subsequently execute the function call encoded in `data`. Calls {_authorizeUpgrade}. Emits an {Upgraded} event."
      }
    },
    "stateVariables": {
      "pages": {
        "details": "Mapping from token ID to Page data."
      }
    },
    "title": "Web3PagesMetadata",
    "version": 1
  },
  "userdoc": {
    "kind": "user",
    "methods": {
      "initialize()": {
        "notice": "Initialiser function (replaces constructor for upgradeable contracts)."
      },
      "tokenURI(uint256)": {
        "notice": "Generate the token URI with embedded metadata."
      },
      "updatePage(uint256,string,string,string,string)": {
        "notice": "Update metadata for a given token."
      }
    },
    "version": 1
  },
  "storageLayout": {
    "storage": [
      {
        "astId": 7853,
        "contract": "contracts/OnchainWebServerMetadata_v2.sol:OnchainWebServerMetadata_v2",
        "label": "pages",
        "offset": 0,
        "slot": "0",
        "type": "t_mapping(t_uint256,t_struct(Page)7847_storage)"
      }
    ],
    "types": {
      "t_mapping(t_uint256,t_struct(Page)7847_storage)": {
        "encoding": "mapping",
        "key": "t_uint256",
        "label": "mapping(uint256 => struct OnchainWebServerMetadata_v2.Page)",
        "numberOfBytes": "32",
        "value": "t_struct(Page)7847_storage"
      },
      "t_string_storage": {
        "encoding": "bytes",
        "label": "string",
        "numberOfBytes": "32"
      },
      "t_struct(Page)7847_storage": {
        "encoding": "inplace",
        "label": "struct OnchainWebServerMetadata_v2.Page",
        "members": [
          {
            "astId": 7840,
            "contract": "contracts/OnchainWebServerMetadata_v2.sol:OnchainWebServerMetadata_v2",
            "label": "content",
            "offset": 0,
            "slot": "0",
            "type": "t_string_storage"
          },
          {
            "astId": 7842,
            "contract": "contracts/OnchainWebServerMetadata_v2.sol:OnchainWebServerMetadata_v2",
            "label": "name",
            "offset": 0,
            "slot": "1",
            "type": "t_string_storage"
          },
          {
            "astId": 7844,
            "contract": "contracts/OnchainWebServerMetadata_v2.sol:OnchainWebServerMetadata_v2",
            "label": "description",
            "offset": 0,
            "slot": "2",
            "type": "t_string_storage"
          },
          {
            "astId": 7846,
            "contract": "contracts/OnchainWebServerMetadata_v2.sol:OnchainWebServerMetadata_v2",
            "label": "imageUrl",
            "offset": 0,
            "slot": "3",
            "type": "t_string_storage"
          }
        ],
        "numberOfBytes": "128"
      },
      "t_uint256": {
        "encoding": "inplace",
        "label": "uint256",
        "numberOfBytes": "32"
      }
    }
  }
}